{
  "contractName": "Election",
  "abi": [
    {
      "inputs": [],
      "payable": false,
      "stateMutability": "nonpayable",
      "type": "constructor"
    },
    {
      "constant": true,
      "inputs": [],
      "name": "admin",
      "outputs": [
        {
          "internalType": "address",
          "name": "",
          "type": "address"
        }
      ],
      "payable": false,
      "stateMutability": "view",
      "type": "function"
    },
    {
      "constant": true,
      "inputs": [
        {
          "internalType": "uint256",
          "name": "",
          "type": "uint256"
        }
      ],
      "name": "candidateDetails",
      "outputs": [
        {
          "internalType": "uint256",
          "name": "candidateId",
          "type": "uint256"
        },
        {
          "internalType": "string",
          "name": "header",
          "type": "string"
        },
        {
          "internalType": "string",
          "name": "slogan",
          "type": "string"
        },
        {
          "internalType": "uint256",
          "name": "voteCount",
          "type": "uint256"
        }
      ],
      "payable": false,
      "stateMutability": "view",
      "type": "function"
    },
    {
      "constant": true,
      "inputs": [
        {
          "internalType": "address",
          "name": "",
          "type": "address"
        }
      ],
      "name": "voterDetails",
      "outputs": [
        {
          "internalType": "address",
          "name": "voterAddress",
          "type": "address"
        },
        {
          "internalType": "string",
          "name": "name",
          "type": "string"
        },
        {
          "internalType": "string",
          "name": "phone",
          "type": "string"
        },
        {
          "internalType": "bool",
          "name": "isVerified",
          "type": "bool"
        },
        {
          "internalType": "bool",
          "name": "hasVoted",
          "type": "bool"
        },
        {
          "internalType": "bool",
          "name": "isRegistered",
          "type": "bool"
        }
      ],
      "payable": false,
      "stateMutability": "view",
      "type": "function"
    },
    {
      "constant": true,
      "inputs": [
        {
          "internalType": "uint256",
          "name": "",
          "type": "uint256"
        }
      ],
      "name": "voters",
      "outputs": [
        {
          "internalType": "address",
          "name": "",
          "type": "address"
        }
      ],
      "payable": false,
      "stateMutability": "view",
      "type": "function"
    },
    {
      "constant": true,
      "inputs": [],
      "name": "getAdmin",
      "outputs": [
        {
          "internalType": "address",
          "name": "",
          "type": "address"
        }
      ],
      "payable": false,
      "stateMutability": "view",
      "type": "function"
    },
    {
      "constant": false,
      "inputs": [
        {
          "internalType": "string",
          "name": "_header",
          "type": "string"
        },
        {
          "internalType": "string",
          "name": "_slogan",
          "type": "string"
        }
      ],
      "name": "addCandidate",
      "outputs": [],
      "payable": false,
      "stateMutability": "nonpayable",
      "type": "function"
    },
    {
      "constant": false,
      "inputs": [
        {
          "internalType": "string",
          "name": "_adminName",
          "type": "string"
        },
        {
          "internalType": "string",
          "name": "_adminEmail",
          "type": "string"
        },
        {
          "internalType": "string",
          "name": "_adminTitle",
          "type": "string"
        },
        {
          "internalType": "string",
          "name": "_electionTitle",
          "type": "string"
        },
        {
          "internalType": "string",
          "name": "_organizationTitle",
          "type": "string"
        }
      ],
      "name": "setElectionDetails",
      "outputs": [],
      "payable": false,
      "stateMutability": "nonpayable",
      "type": "function"
    },
    {
      "constant": true,
      "inputs": [],
      "name": "getElectionDetails",
      "outputs": [
        {
          "internalType": "string",
          "name": "adminName",
          "type": "string"
        },
        {
          "internalType": "string",
          "name": "adminEmail",
          "type": "string"
        },
        {
          "internalType": "string",
          "name": "adminTitle",
          "type": "string"
        },
        {
          "internalType": "string",
          "name": "electionTitle",
          "type": "string"
        },
        {
          "internalType": "string",
          "name": "organizationTitle",
          "type": "string"
        }
      ],
      "payable": false,
      "stateMutability": "view",
      "type": "function"
    },
    {
      "constant": true,
      "inputs": [],
      "name": "getTotalCandidate",
      "outputs": [
        {
          "internalType": "uint256",
          "name": "",
          "type": "uint256"
        }
      ],
      "payable": false,
      "stateMutability": "view",
      "type": "function"
    },
    {
      "constant": true,
      "inputs": [],
      "name": "getTotalVoter",
      "outputs": [
        {
          "internalType": "uint256",
          "name": "",
          "type": "uint256"
        }
      ],
      "payable": false,
      "stateMutability": "view",
      "type": "function"
    },
    {
      "constant": false,
      "inputs": [
        {
          "internalType": "string",
          "name": "_name",
          "type": "string"
        },
        {
          "internalType": "string",
          "name": "_phone",
          "type": "string"
        }
      ],
      "name": "registerAsVoter",
      "outputs": [],
      "payable": false,
      "stateMutability": "nonpayable",
      "type": "function"
    },
    {
      "constant": false,
      "inputs": [
        {
          "internalType": "bool",
          "name": "_verifedStatus",
          "type": "bool"
        },
        {
          "internalType": "address",
          "name": "voterAddress",
          "type": "address"
        }
      ],
      "name": "verifyVoter",
      "outputs": [],
      "payable": false,
      "stateMutability": "nonpayable",
      "type": "function"
    },
    {
      "constant": false,
      "inputs": [
        {
          "internalType": "uint256",
          "name": "candidateId",
          "type": "uint256"
        }
      ],
      "name": "vote",
      "outputs": [],
      "payable": false,
      "stateMutability": "nonpayable",
      "type": "function"
    },
    {
      "constant": false,
      "inputs": [],
      "name": "endElection",
      "outputs": [],
      "payable": false,
      "stateMutability": "nonpayable",
      "type": "function"
    },
    {
      "constant": true,
      "inputs": [],
      "name": "getStart",
      "outputs": [
        {
          "internalType": "bool",
          "name": "",
          "type": "bool"
        }
      ],
      "payable": false,
      "stateMutability": "view",
      "type": "function"
    },
    {
      "constant": true,
      "inputs": [],
      "name": "getEnd",
      "outputs": [
        {
          "internalType": "bool",
          "name": "",
          "type": "bool"
        }
      ],
      "payable": false,
      "stateMutability": "view",
      "type": "function"
    }
  ],
  "bytecode": "0x608060405234801561001057600080fd5b50336000806101000a81548173ffffffffffffffffffffffffffffffffffffffff021916908373ffffffffffffffffffffffffffffffffffffffff160217905550600060018190555060006002819055506000600360006101000a81548160ff0219169083151502179055506000600360016101000a81548160ff021916908315150217905550611d23806100a66000396000f3fe608060405234801561001057600080fd5b50600436106101005760003560e01c806364d198a111610097578063da58c7d911610066578063da58c7d91461095e578063ed836bc3146109cc578063f851a44014610bff578063fee0d19a14610c4957610100565b806364d198a1146108b25780636e9960c3146108d05780639f05a36d1461091a578063c5292c671461093c57610100565b8063506b8e0a116100d3578063506b8e0a146105ba5780635938750d1461060a57806359f78468146107875780636247e5321461079157610100565b80630121b93f146101055780630b93400e14610133578063253e74e21461015157806326541b5614610468575b600080fd5b6101316004803603602081101561011b57600080fd5b8101908080359060200190929190505050610d9b565b005b61013b610f1e565b6040518082815260200191505060405180910390f35b610466600480360360a081101561016757600080fd5b810190808035906020019064010000000081111561018457600080fd5b82018360208201111561019657600080fd5b803590602001918460018302840111640100000000831117156101b857600080fd5b91908080601f016020809104026020016040519081016040528093929190818152602001838380828437600081840152601f19601f8201169050808301925050505050505091929192908035906020019064010000000081111561021b57600080fd5b82018360208201111561022d57600080fd5b8035906020019184600183028401116401000000008311171561024f57600080fd5b91908080601f016020809104026020016040519081016040528093929190818152602001838380828437600081840152601f19601f820116905080830192505050505050509192919290803590602001906401000000008111156102b257600080fd5b8201836020820111156102c457600080fd5b803590602001918460018302840111640100000000831117156102e657600080fd5b91908080601f016020809104026020016040519081016040528093929190818152602001838380828437600081840152601f19601f8201169050808301925050505050505091929192908035906020019064010000000081111561034957600080fd5b82018360208201111561035b57600080fd5b8035906020019184600183028401116401000000008311171561037d57600080fd5b91908080601f016020809104026020016040519081016040528093929190818152602001838380828437600081840152601f19601f820116905080830192505050505050509192919290803590602001906401000000008111156103e057600080fd5b8201836020820111156103f257600080fd5b8035906020019184600183028401116401000000008311171561041457600080fd5b91908080601f016020809104026020016040519081016040528093929190818152602001838380828437600081840152601f19601f820116905080830192505050505050509192919290505050610f28565b005b6105b86004803603604081101561047e57600080fd5b810190808035906020019064010000000081111561049b57600080fd5b8201836020820111156104ad57600080fd5b803590602001918460018302840111640100000000831117156104cf57600080fd5b91908080601f016020809104026020016040519081016040528093929190818152602001838380828437600081840152601f19601f8201169050808301925050505050505091929192908035906020019064010000000081111561053257600080fd5b82018360208201111561054457600080fd5b8035906020019184600183028401116401000000008311171561056657600080fd5b91908080601f016020809104026020016040519081016040528093929190818152602001838380828437600081840152601f19601f82011690508083019250505050505050919291929050505061107b565b005b610608600480360360408110156105d057600080fd5b81019080803515159060200190929190803573ffffffffffffffffffffffffffffffffffffffff16906020019092919050505061117e565b005b61064c6004803603602081101561062057600080fd5b81019080803573ffffffffffffffffffffffffffffffffffffffff169060200190929190505050611235565b604051808773ffffffffffffffffffffffffffffffffffffffff1673ffffffffffffffffffffffffffffffffffffffff1681526020018060200180602001861515151581526020018515151515815260200184151515158152602001838103835288818151815260200191508051906020019080838360005b838110156106e05780820151818401526020810190506106c5565b50505050905090810190601f16801561070d5780820380516001836020036101000a031916815260200191505b50838103825287818151815260200191508051906020019080838360005b8381101561074657808201518184015260208101905061072b565b50505050905090810190601f1680156107735780820380516001836020036101000a031916815260200191505b509850505050505050505060405180910390f35b61078f6113e8565b005b6107bd600480360360208110156107a757600080fd5b8101908080359060200190929190505050611479565b604051808581526020018060200180602001848152602001838103835286818151815260200191508051906020019080838360005b8381101561080d5780820151818401526020810190506107f2565b50505050905090810190601f16801561083a5780820380516001836020036101000a031916815260200191505b50838103825285818151815260200191508051906020019080838360005b83811015610873578082015181840152602081019050610858565b50505050905090810190601f1680156108a05780820380516001836020036101000a031916815260200191505b50965050505050505060405180910390f35b6108ba6115d9565b6040518082815260200191505060405180910390f35b6108d86115e3565b604051808273ffffffffffffffffffffffffffffffffffffffff1673ffffffffffffffffffffffffffffffffffffffff16815260200191505060405180910390f35b61092261160c565b604051808215151515815260200191505060405180910390f35b610944611623565b604051808215151515815260200191505060405180910390f35b61098a6004803603602081101561097457600080fd5b810190808035906020019092919050505061163a565b604051808273ffffffffffffffffffffffffffffffffffffffff1673ffffffffffffffffffffffffffffffffffffffff16815260200191505060405180910390f35b6109d4611676565b60405180806020018060200180602001806020018060200186810386528b818151815260200191508051906020019080838360005b83811015610a24578082015181840152602081019050610a09565b50505050905090810190601f168015610a515780820380516001836020036101000a031916815260200191505b5086810385528a818151815260200191508051906020019080838360005b83811015610a8a578082015181840152602081019050610a6f565b50505050905090810190601f168015610ab75780820380516001836020036101000a031916815260200191505b50868103845289818151815260200191508051906020019080838360005b83811015610af0578082015181840152602081019050610ad5565b50505050905090810190601f168015610b1d5780820380516001836020036101000a031916815260200191505b50868103835288818151815260200191508051906020019080838360005b83811015610b56578082015181840152602081019050610b3b565b50505050905090810190601f168015610b835780820380516001836020036101000a031916815260200191505b50868103825287818151815260200191508051906020019080838360005b83811015610bbc578082015181840152602081019050610ba1565b50505050905090810190601f168015610be95780820380516001836020036101000a031916815260200191505b509a505050505050505050505060405180910390f35b610c076119b4565b604051808273ffffffffffffffffffffffffffffffffffffffff1673ffffffffffffffffffffffffffffffffffffffff16815260200191505060405180910390f35b610d9960048036036040811015610c5f57600080fd5b8101908080359060200190640100000000811115610c7c57600080fd5b820183602082011115610c8e57600080fd5b80359060200191846001830284011164010000000083111715610cb057600080fd5b91908080601f016020809104026020016040519081016040528093929190818152602001838380828437600081840152601f19601f82011690508083019250505050505050919291929080359060200190640100000000811115610d1357600080fd5b820183602082011115610d2557600080fd5b80359060200191846001830284011164010000000083111715610d4757600080fd5b91908080601f016020809104026020016040519081016040528093929190818152602001838380828437600081840152601f19601f8201169050808301925050505050505091929192905050506119d9565b005b60001515600b60003373ffffffffffffffffffffffffffffffffffffffff1673ffffffffffffffffffffffffffffffffffffffff16815260200190815260200160002060030160019054906101000a900460ff16151514610dfb57600080fd5b60011515600b60003373ffffffffffffffffffffffffffffffffffffffff1673ffffffffffffffffffffffffffffffffffffffff16815260200190815260200160002060030160009054906101000a900460ff16151514610e5b57600080fd5b60011515600360009054906101000a900460ff16151514610e7b57600080fd5b60001515600360019054906101000a900460ff16151514610e9b57600080fd5b600160046000838152602001908152602001600020600301600082825401925050819055506001600b60003373ffffffffffffffffffffffffffffffffffffffff1673ffffffffffffffffffffffffffffffffffffffff16815260200190815260200160002060030160016101000a81548160ff02191690831515021790555050565b6000600254905090565b6000809054906101000a900473ffffffffffffffffffffffffffffffffffffffff1673ffffffffffffffffffffffffffffffffffffffff163373ffffffffffffffffffffffffffffffffffffffff1614610f8157600080fd5b6040518060a001604052808681526020018581526020018481526020018381526020018281525060056000820151816000019080519060200190610fc6929190611bcf565b506020820151816001019080519060200190610fe3929190611bcf565b506040820151816002019080519060200190611000929190611bcf565b50606082015181600301908051906020019061101d929190611bcf565b50608082015181600401908051906020019061103a929190611bcf565b509050506001600360006101000a81548160ff0219169083151502179055506000600360016101000a81548160ff0219169083151502179055505050505050565b6000809054906101000a900473ffffffffffffffffffffffffffffffffffffffff1673ffffffffffffffffffffffffffffffffffffffff163373ffffffffffffffffffffffffffffffffffffffff16146110d457600080fd5b6110dc611c4f565b60405180608001604052806001548152602001848152602001838152602001600081525090508060046000600154815260200190815260200160002060008201518160000155602082015181600101908051906020019061113e929190611bcf565b50604082015181600201908051906020019061115b929190611bcf565b506060820151816003015590505060018060008282540192505081905550505050565b6000809054906101000a900473ffffffffffffffffffffffffffffffffffffffff1673ffffffffffffffffffffffffffffffffffffffff163373ffffffffffffffffffffffffffffffffffffffff16146111d757600080fd5b81600b60008373ffffffffffffffffffffffffffffffffffffffff1673ffffffffffffffffffffffffffffffffffffffff16815260200190815260200160002060030160006101000a81548160ff0219169083151502179055505050565b600b6020528060005260406000206000915090508060000160009054906101000a900473ffffffffffffffffffffffffffffffffffffffff1690806001018054600181600116156101000203166002900480601f0160208091040260200160405190810160405280929190818152602001828054600181600116156101000203166002900480156113075780601f106112dc57610100808354040283529160200191611307565b820191906000526020600020905b8154815290600101906020018083116112ea57829003601f168201915b505050505090806002018054600181600116156101000203166002900480601f0160208091040260200160405190810160405280929190818152602001828054600181600116156101000203166002900480156113a55780601f1061137a576101008083540402835291602001916113a5565b820191906000526020600020905b81548152906001019060200180831161138857829003601f168201915b5050505050908060030160009054906101000a900460ff16908060030160019054906101000a900460ff16908060030160029054906101000a900460ff16905086565b6000809054906101000a900473ffffffffffffffffffffffffffffffffffffffff1673ffffffffffffffffffffffffffffffffffffffff163373ffffffffffffffffffffffffffffffffffffffff161461144157600080fd5b6001600360016101000a81548160ff0219169083151502179055506000600360006101000a81548160ff021916908315150217905550565b6004602052806000526040600020600091509050806000015490806001018054600181600116156101000203166002900480601f01602080910402602001604051908101604052809291908181526020018280546001816001161561010002031660029004801561152b5780601f106115005761010080835404028352916020019161152b565b820191906000526020600020905b81548152906001019060200180831161150e57829003601f168201915b505050505090806002018054600181600116156101000203166002900480601f0160208091040260200160405190810160405280929190818152602001828054600181600116156101000203166002900480156115c95780601f1061159e576101008083540402835291602001916115c9565b820191906000526020600020905b8154815290600101906020018083116115ac57829003601f168201915b5050505050908060030154905084565b6000600154905090565b60008060009054906101000a900473ffffffffffffffffffffffffffffffffffffffff16905090565b6000600360019054906101000a900460ff16905090565b6000600360009054906101000a900460ff16905090565b600a818154811061164757fe5b906000526020600020016000915054906101000a900473ffffffffffffffffffffffffffffffffffffffff1681565b606080606080606060056000016005600101600560020160056003016005600401848054600181600116156101000203166002900480601f01602080910402602001604051908101604052809291908181526020018280546001816001161561010002031660029004801561172c5780601f106117015761010080835404028352916020019161172c565b820191906000526020600020905b81548152906001019060200180831161170f57829003601f168201915b50505050509450838054600181600116156101000203166002900480601f0160208091040260200160405190810160405280929190818152602001828054600181600116156101000203166002900480156117c85780601f1061179d576101008083540402835291602001916117c8565b820191906000526020600020905b8154815290600101906020018083116117ab57829003601f168201915b50505050509350828054600181600116156101000203166002900480601f0160208091040260200160405190810160405280929190818152602001828054600181600116156101000203166002900480156118645780601f1061183957610100808354040283529160200191611864565b820191906000526020600020905b81548152906001019060200180831161184757829003601f168201915b50505050509250818054600181600116156101000203166002900480601f0160208091040260200160405190810160405280929190818152602001828054600181600116156101000203166002900480156119005780601f106118d557610100808354040283529160200191611900565b820191906000526020600020905b8154815290600101906020018083116118e357829003601f168201915b50505050509150808054600181600116156101000203166002900480601f01602080910402602001604051908101604052809291908181526020018280546001816001161561010002031660029004801561199c5780601f106119715761010080835404028352916020019161199c565b820191906000526020600020905b81548152906001019060200180831161197f57829003601f168201915b50505050509050945094509450945094509091929394565b6000809054906101000a900473ffffffffffffffffffffffffffffffffffffffff1681565b6119e1611c77565b6040518060c001604052803373ffffffffffffffffffffffffffffffffffffffff16815260200184815260200183815260200160001515815260200160001515815260200160011515815250905080600b60003373ffffffffffffffffffffffffffffffffffffffff1673ffffffffffffffffffffffffffffffffffffffff16815260200190815260200160002060008201518160000160006101000a81548173ffffffffffffffffffffffffffffffffffffffff021916908373ffffffffffffffffffffffffffffffffffffffff1602179055506020820151816001019080519060200190611ad2929190611bcf565b506040820151816002019080519060200190611aef929190611bcf565b5060608201518160030160006101000a81548160ff02191690831515021790555060808201518160030160016101000a81548160ff02191690831515021790555060a08201518160030160026101000a81548160ff021916908315150217905550905050600a3390806001815401808255809150509060018203906000526020600020016000909192909190916101000a81548173ffffffffffffffffffffffffffffffffffffffff021916908373ffffffffffffffffffffffffffffffffffffffff160217905550506001600260008282540192505081905550505050565b828054600181600116156101000203166002900490600052602060002090601f016020900481019282601f10611c1057805160ff1916838001178555611c3e565b82800160010185558215611c3e579182015b82811115611c3d578251825591602001919060010190611c22565b5b509050611c4b9190611cc9565b5090565b6040518060800160405280600081526020016060815260200160608152602001600081525090565b6040518060c00160405280600073ffffffffffffffffffffffffffffffffffffffff16815260200160608152602001606081526020016000151581526020016000151581526020016000151581525090565b611ceb91905b80821115611ce7576000816000905550600101611ccf565b5090565b9056fea265627a7a723158201063f6922c962d3d7c43836d78c874ab6fc3d932afad16a4ba83ff83fb62f04364736f6c63430005100032",
  "source": "// SPDX-License-Identifier: MIT\r\npragma solidity >=0.4.21 <0.9.0;\r\n\r\ncontract Election {\r\n    address public admin;\r\n    uint256 candidateCount;\r\n    uint256 voterCount;\r\n    bool start;\r\n    bool end;\r\n\r\n    constructor() public {\r\n        // Initilizing default values\r\n        admin = msg.sender;\r\n        candidateCount = 0;\r\n        voterCount = 0;\r\n        start = false;\r\n        end = false;\r\n    }\r\n\r\n    function getAdmin() public view returns (address) {\r\n        // Returns account address used to deploy contract (i.e. admin)\r\n        return admin;\r\n    }\r\n\r\n    modifier onlyAdmin() {\r\n        // Modifier for only admin access\r\n        require(msg.sender == admin);\r\n        _;\r\n    }\r\n    // Modeling a candidate\r\n    struct Candidate {\r\n        uint256 candidateId;\r\n        string header;\r\n        string slogan;\r\n        uint256 voteCount;\r\n    }\r\n    mapping(uint256 => Candidate) public candidateDetails;\r\n\r\n    // Adding new candidates\r\n    function addCandidate(string memory _header, string memory _slogan)\r\n        public\r\n        // Only admin can add\r\n        onlyAdmin\r\n    {\r\n        Candidate memory newCandidate =\r\n            Candidate({\r\n                candidateId: candidateCount,\r\n                header: _header,\r\n                slogan: _slogan,\r\n                voteCount: 0\r\n            });\r\n        candidateDetails[candidateCount] = newCandidate;\r\n        candidateCount += 1;\r\n    }\r\n\r\n    // Modeling a Election Details\r\n    struct ElectionDetails {\r\n        string adminName;\r\n        string adminEmail;\r\n        string adminTitle;\r\n        string electionTitle;\r\n        string organizationTitle;\r\n    }\r\n    ElectionDetails electionDetails;\r\n\r\n    function setElectionDetails(\r\n        string memory _adminName,\r\n        string memory _adminEmail,\r\n        string memory _adminTitle,\r\n        string memory _electionTitle,\r\n        string memory _organizationTitle\r\n    )\r\n        public\r\n        // Only admin can add\r\n        onlyAdmin\r\n    {\r\n        electionDetails = ElectionDetails(\r\n            _adminName,\r\n            _adminEmail,\r\n            _adminTitle,\r\n            _electionTitle,\r\n            _organizationTitle\r\n        );\r\n        start = true;\r\n        end = false;\r\n    }\r\n\r\n    // Get Elections details\r\n    function getElectionDetails()\r\n    public\r\n    view\r\n    returns(string memory adminName, \r\n    string memory adminEmail, \r\n    string memory adminTitle, \r\n    string memory electionTitle, \r\n    string memory organizationTitle){\r\n        return(electionDetails.adminName, \r\n        electionDetails.adminEmail, \r\n        electionDetails.adminTitle, \r\n        electionDetails.electionTitle, \r\n        electionDetails.organizationTitle);\r\n    }\r\n\r\n    // Get candidates count\r\n    function getTotalCandidate() public view returns (uint256) {\r\n        // Returns total number of candidates\r\n        return candidateCount;\r\n    }\r\n\r\n    // Get voters count\r\n    function getTotalVoter() public view returns (uint256) {\r\n        // Returns total number of voters\r\n        return voterCount;\r\n    }\r\n\r\n    // Modeling a voter\r\n    struct Voter {\r\n        address voterAddress;\r\n        string name;\r\n        string phone;\r\n        bool isVerified;\r\n        bool hasVoted;\r\n        bool isRegistered;\r\n    }\r\n    address[] public voters; // Array of address to store address of voters\r\n    mapping(address => Voter) public voterDetails;\r\n\r\n    // Request to be added as voter\r\n    function registerAsVoter(string memory _name, string memory _phone) public {\r\n        Voter memory newVoter =\r\n            Voter({\r\n                voterAddress: msg.sender,\r\n                name: _name,\r\n                phone: _phone,\r\n                hasVoted: false,\r\n                isVerified: false,\r\n                isRegistered: true\r\n            });\r\n        voterDetails[msg.sender] = newVoter;\r\n        voters.push(msg.sender);\r\n        voterCount += 1;\r\n    }\r\n\r\n    // Verify voter\r\n    function verifyVoter(bool _verifedStatus, address voterAddress)\r\n        public\r\n        // Only admin can verify\r\n        onlyAdmin\r\n    {\r\n        voterDetails[voterAddress].isVerified = _verifedStatus;\r\n    }\r\n\r\n    // Vote\r\n    function vote(uint256 candidateId) public {\r\n        require(voterDetails[msg.sender].hasVoted == false);\r\n        require(voterDetails[msg.sender].isVerified == true);\r\n        require(start == true);\r\n        require(end == false);\r\n        candidateDetails[candidateId].voteCount += 1;\r\n        voterDetails[msg.sender].hasVoted = true;\r\n    }\r\n\r\n    // End election\r\n    function endElection() public onlyAdmin {\r\n        end = true;\r\n        start = false;\r\n    }\r\n\r\n    // Get election start and end values\r\n    function getStart() public view returns (bool) {\r\n        return start;\r\n    }\r\n\r\n    function getEnd() public view returns (bool) {\r\n        return end;\r\n    }\r\n}\r\n",
  "sourcePath": "C:\\Users\\lenov\\Ankushpandey\\LOC\\GElec2024\\contracts\\Election.sol",
  "compiler": {
    "name": "solc",
    "version": "0.5.16+commit.9c3226ce.Emscripten.clang"
  },
  "schemaVersion": "3.4.16",
  "updatedAt": "2024-03-09T23:29:03.010Z",
  "networkType": "ethereum",
  "devdoc": {
    "methods": {}
  },
  "userdoc": {
    "methods": {}
  }
}